:020000040800F2
:1000000000000220651B0008F1190008F71900081C
:10001000FD190008031A0008091A00080000000072
:100020000000000000000000000000000F1A00089F
:100030001D1A0008000000002B1A0008391A0008D9
:10004000B51B0008B51B0008B51B0008B51B000850
:10005000B51B0008B51B0008B51B0008B51B000840
:10006000B51B0008B51B0008B51B0008B51B000830
:10007000B51B0008B51B0008B51B0008B51B000820
:10008000B51B0008B51B0008B51B0008B51B000810
:10009000B51B0008B51B0008B51B0008B51B000800
:1000A000B51B0008B51B0008B51B0008B51B0008F0
:1000B000451A0008B51B0008B51B0008B51B000851
:1000C000B51B0008B51B0008B51B0008B51B0008D0
:1000D000B51B0008591A0008B51B0008B51B00081D
:1000E000B51B0008B51B0008B51B0008B51B0008B0
:1000F000B51B0008B51B0008B51B0008B51B0008A0
:10010000B51B0008B51B0008B51B0008B51B00088F
:10011000B51B0008B51B0008B51B0008B51B00087F
:10012000B51B0008B51B0008B51B0008B51B00086F
:10013000B51B0008B51B0008B51B0008B51B00085F
:10014000B51B0008B51B0008B51B0008B51B00084F
:10015000B51B0008B51B0008B51B0008B51B00083F
:10016000B51B0008B51B0008B51B0008B51B00082F
:10017000B51B0008B51B0008B51B000800000000F7
:08018000B51B0008B51B0008C7
:1001880010B5054C237833B9044B13B10448AFF3C9
:1001980000800123237010BD0C0000200000000027
:1001A800805A000808B5034B1BB103490348AFF355
:1001B800008008BD0000000010000020805A0008E0
:1001C80053B94AB9002908BF00281CBF4FF0FF31B6
:1001D8004FF0FF3000F06EB9ADF1080C6DE904CEB8
:1001E80000F006F8DDF804E0DDE9022304B070470A
:1001F8002DE9F047089D04468C46002B40F083808B
:100208008A42174647D9B2FA82F242B1C2F12000B7
:1002180024FA00F09140974040EA010C94404FEADC
:100228001748230CBCFBF8F61FFA87FE08FB16C11B
:1002380043EA014306FB0EF1994209D9FB1806F17E
:10024800FF3080F01981994240F21681023E3B440A
:100258005B1AA4B2B3FBF8F008FB103344EA03447A
:1002680000FB0EFEA64509D93C1900F1FF3380F0CA
:100278000581A64540F2028102383C4440EA064026
:10028800A4EB0E0400261DB1D4400023C5E90043A9
:100298003146BDE8F08702B9FFDEB2FA82F2002AE1
:1002A80050D1CB1B4FEA174E1FFA87F80126B3FB34
:1002B800FEFC210C0EFB1C3341EA034108FB0CF346
:1002C8008B4207D979180CF1FF3002D28B4200F229
:1002D800E9808446C91AA3B2B1FBFEF00EFB1011E7
:1002E80043EA014408FB00F8A04507D93C1900F18E
:1002F800FF3302D2A04500F2D9801846A4EB0804C7
:1003080040EA0C40BFE78B4209D9002D00F0B180CC
:100318000026C5E9000130463146BDE8F087B3FA4A
:1003280083F6002E4AD18B4202D3824200F2B88073
:10033800841A61EB030101208C46002DA8D0C5E981
:10034800004CA5E7C2F1200320FA03F6974001FA12
:1003580002F04FEA174ED9403043030CB1FBFEF6CA
:100368001FFA87F80EFB161143EA014306FB08F152
:10037800994204FA02F409D9FB1806F1FF3C80F00F
:100388008D80994240F28A80023E3B445B1A81B2DA
:10039800B3FBFEF00EFB103341EA034100FB08F308
:1003A8008B4207D9791800F1FF3C73D28B4271D97F
:1003B80002383944CB1A40EA064678E7C6F1200CE1
:1003C80003FA06F422FA0CF31C4320FA0CF701FA9C
:1003D80006F34FEA144E21FA0CF11F433B0CB1FB14
:1003E800FEF91FFA84F80EFB191143EA014109FBD3
:1003F80008FA8A4502FA06F200FA06F308D96118E3
:1004080009F1FF3048D28A4546D9A9F102092144A9
:10041800A1EB0A01BFB2B1FBFEF00EFB101147EAD7
:10042800014700FB08F8B84507D9E71900F1FF3183
:100438002ED2B8452CD90238274440EA0940A7EB08
:100448000807A0FB02894F45C64649461AD317D06C
:100458005DB1B3EB0E0267EB010707FA0CFCF24043
:100468004CEA0202F740C5E9002700263146BDE8FC
:10047800F0872E4628460BE70646E9E61846FDE6CD
:100488004345E5D2B8EB020E69EB04010138DFE71A
:100498000846D2E760468DE78146B9E7664675E7C4
:1004A80030464AE7ACF1020C394413E702383C44C1
:1004B80024E700BF704700BF80B500AF01220821C4
:1004C800024801F04BFF00BF80BD00BF000C024096
:1004D80080B400AF144B1B789BB2013B9AB2134B0C
:1004E8001A80134B1B789AB2124B1A80124B1B7846
:1004F8009AB2124B1A80124B1B789AB2114B1A807F
:10050800114B1B789AB2114B1A80114B1B789AB277
:10051800104B1A80104B1B789AB2104B1A8000BFF0
:10052800BD465DF8047B70476C0100202800002060
:100538006E0100202A000020710100202C000020FC
:10054800700100202E0000206F01002030000020E4
:1005580072010020320000206D01002034000020CC
:1005680090B583B000AF0446084611461A462346A4
:10057800FB800346BB800B467B8013463B803B8C4D
:10058800DBB21946062000F06DF8BB8BDBB21946CA
:10059800052000F067F83B8BDBB21946042000F019
:1005A80061F83B88DBB21946032000F05BF87B88D2
:1005B800DBB21946022000F055F8BB88DBB21946B9
:1005C800012000F04FF8FB88DBB21946002000F04C
:1005D80049F800BF0C37BD4690BD000080B500AF9C
:1005E8001E2001F097FA03461A461C4B1A70162073
:1005F80001F090FA03461A46184B5A70152001F07C
:1006080089FA03461A46154B9A70062001F082FAB9
:1006180003461A46114BDA700F2001F07BFA0346A5
:100628001A460E4B1A71092001F074FA03461A464D
:100638000A4B5A71172001F06DFA03461A46074B08
:100648009A7132230322D021054802F005FB0346A4
:10065800002B00D0FEE700BF80BD00BF7401002062
:10066800D400002080B588B004AF03460A46FB7169
:100678001346BB71BB79184601F04CFA0346FB736D
:10068800FB799AB20A2302930123019307F10F031E
:1006980000930123D021034801F0BEFF00BF1037AB
:1006A800BD4680BDD400002080B584B004AF0A23C5
:1006B800029307230193254B009301230022D021A5
:1006C800234802F0A3F8214B1B78184601F008FADA
:1006D80003461A461F4B1A701C4B5B78184601F0EC
:1006E800FFF903461A461C4B1A70184B9B7818469C
:1006F80001F0F6F903461A46184B1A70134BDB78CB
:10070800184601F0EDF903461A46154B1A700F4BBF
:100718001B79184601F0E4F903461A46114B1A7082
:100728000A4B5B79184601F0DBF903461A460E4B73
:100738001A70064B9B79184601F0D2F903461A46FF
:100748000A4B1A7000BFBD4680BD00BF740100206F
:10075800D40000206C0100206E01002071010020EF
:10076800700100206F010020720100206D0100203F
:1007780080B483B000AF0346FB80044AFB88138033
:1007880000BF0C37BD465DF8047B7047FEFF0F6065
:1007980080B483B000AF0346FB80044AFB885380D3
:1007A80000BF0C37BD465DF8047B7047FEFF0F6045
:1007B80080B483B000AF064B5B889BB2FB80FB889C
:1007C8009BB218460C37BD465DF8047B704700BFE6
:1007D800FEFF0F6090B583B000AF0446084611468F
:1007E8001A462346FB800346BB800B467B80134694
:1007F8003B802A20FFF7BCFFFB881B0A9BB21846E8
:10080800FFF7C6FFFB88DBB29BB21846FFF7C0FFB5
:100818007B881B0A9BB21846FFF7BAFF7B88DBB2BE
:100828009BB21846FFF7B4FF2B20FFF7A1FFBB8848
:100838001B0A9BB21846FFF7ABFFBB88DBB29BB223
:100848001846FFF7A5FF3B881B0A9BB21846FFF71F
:100858009FFF3B88DBB29BB21846FFF799FF2C201D
:10086800FFF786FF00BF0C37BD4690BD80B584B04A
:1008780000AF0346FB80154B1B88013B9AB2134B14
:100888005B88013B9BB200210020FFF7A3FF0023F8
:10089800FB8111E00023BB8106E0FB881846FFF7C7
:1008A80077FFBB890133BB81084B5B88BA899A42C1
:1008B800F3D3FB890133FB81044B1B88FA899A42E5
:1008C800E8D300BF00BF1037BD4680BD7C010020C3
:1008D80080B582B000AF0346FB800B46BB80134651
:1008E8007B80BB88FA88B988F888FFF773FF7B8814
:1008F8001846FFF74DFF00BF0837BD4680BD000012
:1009080090B587B000AF0446084611461A462346FC
:10091800FB800346BB800B46FB7013463B800023DD
:100928007B75FB883B8297F82C305B08FB73FB7B5D
:10093800DB08DBB21A46FB7B03F00703DBB2002BB4
:1009480014BF01230023DBB213449AB297F82C306A
:100958009BB212FB03F3BB81FB78203BFB70FB7B54
:100968009AB2FB8813449BB2013B9CB297F82C3097
:100978009AB2BB8813449BB2013B9BB2B988F888F2
:100988002246FFF727FF00237B827AE097F82C3076
:100998000C2B28D097F82C30102B08D1FA787B8AAA
:1009A8003C4912010A4413441B78FB751BE097F875
:1009B8002C30182B0BD1FA78798A374813465B000C
:1009C80013441B0103440B441B78FB750BE097F899
:1009D8002C30202B5AD1FA787B8A304992010A446C
:1009E80013441B78FB750023BB7544E097F830303F
:1009F800002B20D1FA7DBB7D42FA03F303F00103FB
:100A0800002B04D03B881846FFF7C2FE03E03B8D5D
:100A18001846FFF7BDFE7B7D01337B757B7DFA7B36
:100A2800B3FBF2F102FB01F29B1ADBB2002B1FD1E0
:100A380000237B7522E0FA7DBB7D42FA03F303F0C5
:100A48000103002B05D03A88B988FB881846FFF7C0
:100A58003FFFFB880133FB80FA883B8AD21AFB7B75
:100A68009A4205D13B8AFB80BB880133BB8005E0F5
:100A7800BB7D0133BB75BB7D072BB7D97B8A01339F
:100A88007B827A8ABB899A4280D300E000BF1C37F8
:100A9800BD4690BDAC5A00089C6000086C72000806
:100AA80080B485B000AF03460A46FB711346BB719C
:100AB8000123FB6004E0FA79FB6802FB03F3FB60A7
:100AC800BB795A1EBA71002BF5D1FB68184614374A
:100AD800BD465DF8047B704790B589B004AF044605
:100AE800084611461A462346FB800346BB800B4640
:100AF8007B8013467B700023BB7397F828305B0814
:100B08007B730023FB7359E07C887A78FB7BD31ACC
:100B1800DBB2013BDBB219460A20FFF7C1FF0346EF
:100B2800B4FBF3F12A4BA3FB0123DA0813469B001D
:100B380013445B00CA1A13463B73BB7B002B21D1BD
:100B4800FA7B7B78013B9A421CDA3B7B002B17D15E
:100B5800FB7B9AB27B7B9BB212FB03F39AB2FB88B6
:100B6800134498B23A8CB9880023029397F8283036
:100B78000193BB8C009313462022FFF7C1FE1AE0B5
:100B88000123BB73FB7B9AB27B7B9BB212FB03F303
:100B98009AB2FB88134498B23B7B3033DAB23C8C70
:100BA800B9880023029397F828300193BB8C0093EF
:100BB8002346FFF7A5FEFB7B0133FB73FA7B7B78AB
:100BC8009A42A1D300BF00BF1437BD4690BD00BFF5
:100BD800CDCCCCCC80B483B000AF0346FB71FB799D
:100BE8001B09DBB203F00303DBB2002B07D00A4B6F
:100BF8004FF4A0721A80084BF0225A8006E0064B88
:100C0800F0221A80044B4FF4A0725A8000BF0C37B0
:100C1800BD465DF8047B70477C01002080B500AFBD
:100C280000224FF40051AA4801F098FB4FF4FA70E3
:100C380001F030F801224FF40051A54801F08EFB75
:100C48004FF4FA7001F026F80020FFF7C3FFD32015
:100C5800FFF78EFDFFF7ACFD03461A469D4B9A80C1
:100C6800FFF7A6FD03461A469A4B9A80FFF7A0FDA8
:100C780003461A46974B9A80964B9B881B029AB25A
:100C8800944B9A80FFF794FD03461A46914B9B8834
:100C980013439AB28F4B9A80CF20FFF769FD00204B
:100CA800FFF776FDC120FFF773FD3020FFF770FDD9
:100CB800ED20FFF75DFD6420FFF76AFD0320FFF7D5
:100CC80067FD1220FFF764FD8120FFF761FDE82032
:100CD800FFF74EFD8520FFF75BFD1020FFF758FD5D
:100CE8007A20FFF755FDCB20FFF742FD3920FFF7AB
:100CF8004FFD2C20FFF74CFD0020FFF749FD342065
:100D0800FFF746FD0220FFF743FDF720FFF730FD10
:100D18002020FFF73DFDEA20FFF72AFD0020FFF71E
:100D280037FD0020FFF734FDC020FFF721FD1B2011
:100D3800FFF72EFDC120FFF71BFD0120FFF728FD5F
:100D4800C520FFF715FD3020FFF722FD3020FFF703
:100D58001FFDC720FFF70CFDB720FFF719FD362050
:100D6800FFF706FD0820FFF713FD3A20FFF700FD07
:100D78005520FFF70DFDB120FFF7FAFC0020FFF723
:100D880007FD1A20FFF704FDB620FFF7F1FC0A2043
:100D9800FFF7FEFCA220FFF7FBFCF220FFF7E8FCC0
:100DA8000020FFF7F5FC2620FFF7E2FC0120FFF703
:100DB800EFFCE020FFF7DCFC0F20FFF7E9FC2A201E
:100DC800FFF7E6FC2820FFF7E3FC0820FFF7E0FC2C
:100DD8000E20FFF7DDFC0820FFF7DAFC5420FFF7B0
:100DE800D7FCA920FFF7D4FC4320FFF7D1FC0A2049
:100DF800FFF7CEFC0F20FFF7CBFC0020FFF7C8FC65
:100E08000020FFF7C5FC0020FFF7C2FC0020FFF719
:100E1800BFFCE120FFF7ACFC0020FFF7B9FC152070
:100E2800FFF7B6FC1720FFF7B3FC0720FFF7B0FC6D
:100E38001120FFF7ADFC0620FFF7AAFC2B20FFF7D7
:100E4800A7FC5620FFF7A4FC3C20FFF7A1FC0520D7
:100E5800FFF79EFC1020FFF79BFC0F20FFF798FC84
:100E68003F20FFF795FC3F20FFF792FC0F20FFF78C
:100E78008FFC2B20FFF77CFC0020FFF789FC00206B
:100E8800FFF786FC0120FFF783FC3F20FFF780FC7B
:100E98002A20FFF76DFC0020FFF77AFC0020FFF7FF
:100EA80077FC0020FFF774FCEF20FFF771FC11209E
:100EB800FFF75EFC782000F0EDFE2920FFF758FCD4
:100EC80001224FF48071044801F048FA00BF80BD48
:100ED800000802407C0100200000024090B58BB061
:100EE80004AFBA601A460346FB810B46BB81134622
:100EF800FB80FB89BB820023FB7548E0FB7D002B50
:100F080045D1FA89264B1B88194697F82C305B087F
:100F1800DBB2CB1A9A423FDCBA89214B5B8819466F
:100F280097F82C30CB1A9A4236DCBB681B78802B9A
:100F380002D90123FB752AE0BB681B780D2B0BD166
:100F480097F82C309AB2BB891344BB81BB8AFB81CA
:100F5800BB680133BB6017E0BB681A78FC88B989A5
:100F6800F88997F83030029397F82C3001933B8D2D
:100F780000932346FFF7C4FC97F82C305B08DBB2DC
:100F88009AB2FB891344FB81BB680133BB60BB6821
:100F98001B78002BB2D100E000BF1C37BD4690BDC6
:100FA8007C01002080B500AF01224021024801F0F9
:100FB800D5F900BF80BD00BF00180240F0B585B06C
:100FC80004AF00F0F5FD00F06DF800F0AFF900F0A7
:100FD80037F900F08BFA00F0CFF800F0FBF800F0DA
:100FE8007BF900F0FDFA254803F050F80020FFF7E0
:100FF8003DFCC82000F014FBFFF756FBFFF768FA2A
:101008001F4B1B7898B21F4B1B789CB21E4B1B784A
:101018009DB21E4B1B789EB21D4B1B789BB21D4A7E
:10102800127892B21C49097889B202910192009310
:1010380033462A462146FFF793FA012302931823E1
:101048000193002300934FF6FF73144A1E210A20D0
:10105800FFF744FF124B1B78002BEED0104B9AB2CF
:1010680018230293002301934FF6FF730093022382
:101078001E219620FFF730FDDFE700BF08020020A1
:101088006C0100206E010020710100207001002019
:101098006F010020720100206D010020985A00089D
:1010A8005800002080B594B000AF07F1200330222B
:1010B8000021184604F0D8FC07F10C0300221A603E
:1010C8005A609A60DA601A610023BB60284B1B6C77
:1010D800274A43F080531364254B1B6C03F080535D
:1010E800BB60BB6800237B60224B1B68214A43F42A
:1010F800804313601F4B1B6803F480437B607B684D
:1011080002233B620123FB6210233B630223BB6380
:101118000023FB6308233B64A8237B640223BB648E
:101128000423FB6407F12003184602F01FFA034664
:10113800002B01D000F06FFA0F23FB6002233B6104
:1011480000237B614FF4A053BB614FF4A053FB61B4
:1011580007F10C030521184602F080FC0346002B1A
:1011680001D000F058FA00BF5037BD4680BD00BF1F
:10117800003802400070004080B500AF124B134A9F
:101188001A60114B124A5A600F4B00229A600E4B9C
:101198000022DA600C4B4FF480421A610A4B00229D
:1011A8005A61094B00229A61074B0022DA61064B0B
:1011B80000221A62044801F0EBF80346002B01D024
:1011C80000F029FA00BF80BDD40000200054004080
:1011D800A086010080B500AF174B184A1A60164B5D
:1011E8004FF482725A60144B00229A60124B00220C
:1011F800DA60114B00221A610F4B00225A610E4B24
:101208004FF400729A610C4B0022DA610A4B0022FB
:101218001A62094B00225A62074B00229A62064B57
:101228000A22DA62044802F015FE0346002B01D0B8
:1012380000F0F1F900BF80BD7C00002000300140C3
:1012480080B586B000AF07F1080300221A605A6023
:101258009A60DA603B4600221A605A601D4B4FF0D4
:1012680080421A601B4B40F247325A60194B0022E9
:101278009A60184B6322DA60164B00221A61154BEC
:1012880000229A61134802F0B2FE0346002B01D0F7
:1012980000F0C1F94FF48053BB6007F10803194609
:1012A8000C4803F06BF80346002B01D000F0B3F9AB
:1012B80000233B6000237B603B461946054803F04A
:1012C80087FA0346002B01D000F0A5F900BF1837B4
:1012D800BD4680BD0802002080B500AF114B124A00
:1012E8001A60104B4FF4E1325A600E4B00229A609C
:1012F8000C4B0022DA600B4B00221A61094B0C22BE
:101308005A61084B00229A61064B0022DA610548AF
:1013180003F0EEFA0346002B01D000F07CF900BF81
:1013280080BD00BF280100200010014080B58CB0AE
:1013380000AF07F11C0300221A605A609A60DA6055
:101348001A610023BB61634B1B6B624A43F01003B5
:101358001363604B1B6B03F01003BB61BB69002375
:101368007B615C4B1B6B5B4A43F004031363594B73
:101378001B6B03F004037B617B6900233B61554BC6
:101388001B6B544A43F080031363524B1B6B03F0EF
:1013980080033B613B690023FB604E4B1B6B4D4A4E
:1013A80043F0080313634B4B1B6B03F00803FB600C
:1013B800FB680023BB60474B1B6B464A43F0400366
:1013C8001363444B1B6B03F04003BB60BB680023F3
:1013D8007B60404B1B6B3F4A43F0010313633D4B5B
:1013E8001B6B03F001037B607B6800233B60394B78
:1013F8001B6B384A43F002031363364B1B6B03F035
:1014080002033B603B6800224FF40051324800F071
:10141800A5FF00224021314800F0A0FF00224FF430
:1014280080712F4800F09AFF002208212D4800F013
:1014380095FF002203212C4800F090FF4FF4005341
:10144800FB6101233B6200237B620023BB6207F13F
:101458001C031946204800F0E5FD4023FB610123E9
:101468003B6200237B620023BB6207F11C03194621
:101478001A4800F0D7FD4FF48073FB6101233B62EB
:1014880000237B620023BB6207F11C031946144842
:1014980000F0C8FD0823FB6101233B6200237B6247
:1014A8000023BB6207F11C0319460E4800F0BAFD81
:1014B8000323FB6101233B6200237B620023BB62A1
:1014C80007F11C031946084800F0ACFD00BF30378F
:1014D800BD4680BD003802400008024000180240A6
:1014E80000000240000C02400010024080B58EB09F
:1014F80000AF07F11C0300221A605A609A60DA6094
:101508001A615A619A613B4600221A605A609A60D1
:10151800DA601A615A619A612F4B4FF020421A60C3
:101528002D4B2E4A5A602C4B00229A602A4B0022DF
:10153800DA60294B00221A61274B10225A61264B88
:1015480000229A61244B0022DA61234B00221A629E
:10155800214B00225A62204B4FF480529A621E4B54
:101568000022DA621C4B4FF480421A631A4B0022A5
:101578005A63194B00229A63174B00225A640F23AF
:10158800FB610F233B623C237B620023BB62102379
:10159800FB6211233B6300237B6308233B600F231B
:1015A8007B600923BB600023FB6010233B61112390
:1015B8007B610023BB613A4607F11C0319460648C4
:1015C80002F0D1FC0346002B01D000F024F800BF44
:1015D8003837BD4680BD00BFB8010020040100A017
:1015E80080B500AFFFF7DEFCFEF766FFFFF716FBDE
:1015F800FEF7F4FF00F048FA322000F011F800BFBF
:1016080080BD80B582B000AF786000F01DF800BFE3
:101618000837BD4680BD80B400AF72B600BFFEE794
:1016280080B483B000AF7860054A7B681360054BCF
:1016380000221A6000BF0C37BD465DF8047B704776
:10164800400000204400002080B400AF1C4B1B6801
:10165800002B05DD1A4B1B68013B194A136002E099
:10166800184B01221A60184B1B68002B05DD164B1E
:101678001B68013B144A136002E0144B01221A60F4
:10168800134B1B68002B05DD114B1B68013B104AEF
:10169800136002E00F4B01221A600F4B1B88002BCE
:1016A80006D00D4B1B88013B9AB20B4B1A8002E007
:1016B8000A4B01221A8000BFBD465DF8047B7047C3
:1016C800380000203C00002040000020440000209A
:1016D800480000204C00002052000020500000204C
:1016E80080B483B000AF00237B60104B5B6C0F4A63
:1016F80043F4804353640D4B5B6C03F480437B607D
:101708007B6800233B60094B1B6C084A43F08053FD
:101718001364064B1B6C03F080533B603B6800BFAF
:101728000C37BD465DF8047B704700BF00380240A7
:1017380080B58AB000AF786007F1140300221A6000
:101748005A609A60DA601A617B681B68194A93428A
:101758002BD100233B61184B1B6B174A43F0020344
:101768001363154B1B6B03F002033B613B69C023FA
:101778007B611223BB610023FB6103233B620423CB
:101788007B6207F1140319460C4800F04BFC002358
:10179800FB60094B1B6C084A43F400131364064BA7
:1017A8001B6C03F40013FB60FB6800BF2837BD46C1
:1017B80080BD00BF005400400038024000040240D1
:1017C80080B58AB000AF786007F1140300221A6070
:1017D8005A609A60DA601A617B681B68194A9342FA
:1017E8002BD100233B61184B5B6C174A43F48053A1
:1017F8005364154B5B6C03F480533B613B690023D6
:10180800FB60114B1B6B104A43F0020313630E4B32
:101818001B6B03F00203FB60FB6838237B61022328
:10182800BB610023FB6103233B6205237B6207F155
:1018380014031946054800F0F5FB00BF2837BD46DC
:1018480080BD00BF00300140003802400004024063
:1018580080B584B000AF78607B681B68B3F1804FB7
:1018680015D10023FB600C4B1B6C0B4A43F00103A2
:101878001364094B1B6C03F00103FB60FB68002237
:1018880000211C2000F005FB1C2000F01EFB00BFFF
:101898001037BD4680BD00BF0038024080B58AB011
:1018A80000AF786007F1140300221A605A609A604A
:1018B800DA601A617B681B681D4A934234D10023A1
:1018C8003B611C4B5B6C1B4A43F010035364194B80
:1018D8005B6C03F010033B613B690023FB60154B15
:1018E8001B6B144A43F001031363124B1B6B03F089
:1018F8000103FB60FB684FF4C0637B610223BB619B
:101908000023FB6103233B6207237B6207F1140377
:101918001946094800F086FB00220021252000F026
:10192800B8FA252000F0D1FA00BF2837BD4680BD9F
:1019380000100140003802400000024080B586B027
:1019480000AF3B1D00221A605A609A60DA601A6183
:101958001C4B1B68002B31D11A4B01221A60002343
:101968003B60194B9B6B184A43F001039363164B7A
:101978009B6B03F001033B603B684FF688737B6009
:101988000223BB600023FB6003233B610C237B61C4
:101998003B1D19460D4800F045FB4CF2B3737B60C4
:1019A8000223BB600023FB6003233B610C237B61A4
:1019B8003B1D1946064800F035FB00E000BF18370C
:1019C800BD4680BD5400002000380240001002408F
:1019D800000C024080B582B000AF7860FFF7AEFF20
:1019E80000BF0837BD4680BD80B400AFFEE780B4B5
:1019F80000AFFEE780B400AFFEE780B400AFFEE7BB
:101A080080B400AFFEE780B400AF00BFBD465DF80C
:101A1800047B704780B400AF00BFBD465DF8047B0F
:101A2800704780B400AF00BFBD465DF8047B7047C7
:101A380080B500AF00F00EF900BF80BD80B500AFE3
:101A4800024802F093FB00BF80BD00BF08020020DF
:101A580080B500AF024803F05BF800BF80BD00BF4F
:101A68002801002080B400AF064BD3F88830054A1F
:101A780043F47003C2F8883000BFBD465DF8047BAC
:101A8800704700BF00ED00E080B500AF01220349B8
:101A9800034803F00CF800BF80BD00BF58000020C9
:101AA8002801002080B582B000AF78607B681B6891
:101AB800084A93420AD10A2301220749074802F03B
:101AC80064FF01220449054802F0F1FF00BF08370E
:101AD800BD4680BD001001405800002028010020AC
:101AE80080B483B000AF0346FB71FB791B09DBB2FE
:101AF8001A46920013445B00DAB2FB7903F00F0335
:101B0800DBB21344DBB218460C37BD465DF8047BE4
:101B18007047000080B483B000AF0346FB71FB79C7
:101B28000D4AA2FB0323DB08DBB21B0158B2FA798A
:101B3800094BA3FB0213D9080B469B000B445B001F
:101B4800D31ADBB25BB203435BB2DBB218460C3785
:101B5800BD465DF8047B7047CDCCCCCCDFF834D0E3
:101B68000D480E490E4A002302E0D458C4500433ED
:101B7800C4188C42F9D30B4A0B4C002301E01360C4
:101B88000432A242FBD3FFF76DFF03F049FFFFF7D2
:101B980015FA704700000220000000200C00002009
:101BA800548A00080C00002054020020FEE70000C0
:101BB80080B500AF0E4B1B680D4A43F400731360E9
:101BC8000B4B1B680A4A43F480631360084B1B687D
:101BD800074A43F480731360032000F04FF90F2085
:101BE80000F008F8FFF77CFD0023184680BD00BF11
:101BF800003C024080B582B000AF7860124B1A6892
:101C0800124B1B7819464FF47A73B3FBF1F3B2FB0E
:101C1800F3F3184600F067F90346002B01D00123BF
:101C28000EE07B680F2B0AD8002279684FF0FF304E
:101C380000F02FF9064A7B681360002300E00123B7
:101C480018460837BD4680BD000000200800002067
:101C58000400002080B400AF064B1B781A46064BE0
:101C68001B681344044A136000BFBD465DF8047B3B
:101C7800704700BF080000205002002080B400AF69
:101C8800034B1B681846BD465DF8047B704700BFD0
:101C98005002002080B584B000AF7860FFF7EEFFF7
:101CA800B8607B68FB60FB68B3F1FF3F05D00A4B67
:101CB8001B781A46FB681344FB6000BFFFF7DEFF82
:101CC8000246BB68D31AFA689A42F7D800BF00BF29
:101CD8001037BD4680BD00BF0800002080B485B025
:101CE80000AF78607B6803F00703FB600C4BDB6890
:101CF800BB60BA684FF6FF031340BB60FB681A026B
:101D0800BB68134343F0BF6343F40033BB60044A2A
:101D1800BB68D36000BF1437BD465DF8047B7047CD
:101D280000ED00E080B400AF044BDB681B0A03F051
:101D380007031846BD465DF8047B704700ED00E0D8
:101D480080B483B000AF0346FB7197F90730002BCE
:101D58000BDBFB7903F01F02074997F907305B0992
:101D6800012000FA02F241F8232000BF0C37BD46DB
:101D78005DF8047B704700BF00E100E080B483B0E9
:101D880000AF03463960FB7197F90730002B0ADB77
:101D98003B68DAB20C4997F907301201D2B20B440A
:101DA80083F800230AE03B68DAB20849FB7903F0BC
:101DB8000F03043B1201D2B20B441A7600BF0C3752
:101DC800BD465DF8047B704700E100E000ED00E0EF
:101DD80080B489B000AFF860B9607A60FB6803F03E
:101DE8000703FB61FB69C3F10703042B28BF042326
:101DF800BB61FB690433062B02D9FB69033B00E096
:101E080000237B614FF0FF32BB6902FA03F3DA4328
:101E1800BB681A407B699A404FF0FF317B6901FA31
:101E280003F3D9437B680B40134318462437BD4658
:101E38005DF8047B7047000080B582B000AF786021
:101E48007B68013BB3F1807F01D301230FE00A4A8D
:101E58007B68013B53600F214FF0FF30FFF78EFF87
:101E6800054B00229A60044B07221A60002318468B
:101E78000837BD4680BD00BF10E000E080B582B0E5
:101E880000AF78607868FFF729FF00BF0837BD46C4
:101E980080BD80B586B000AF0346B9607A60FB7339
:101EA80000237B61FFF73EFF78617A68B96878693B
:101EB800FFF78EFF024697F90F3011461846FFF7D5
:101EC8005DFF00BF1837BD4680BD80B582B000AF4A
:101ED8000346FB7197F907301846FFF731FF00BF3B
:101EE8000837BD4680BD80B582B000AF786078689D
:101EF800FFF7A2FF034618460837BD4680BD80B5E8
:101F080084B000AF78607B689B6DFB60FFF7B6FE1E
:101F1800B8607B6893F83530DBB2022B08D07B6859
:101F280080225A657B68002283F83420012352E01E
:101F38007B681B681A687B681B6822F016021A60A7
:101F48007B681B685A697B681B6822F080025A61AB
:101F58007B681B6C002B03D17B689B6C002B07D024
:101F68007B681B681A687B681B6822F008021A6085
:101F78007B681B681A687B681B6822F001021A607C
:101F880013E0FFF77BFE0246BB68D31A052B0CD97A
:101F98007B6820225A657B68032283F835207B689A
:101FA800002283F83420032315E07B681B681B6834
:101FB80003F00103002BE4D17B68DB6D3F229A40DC
:101FC800FB689A607B68012283F835207B680022D1
:101FD80083F83420002318461037BD4680BD80B4EE
:101FE80083B000AF78607B6893F83530DBB2022BA2
:101FF80004D07B6880225A6501230CE07B680522A7
:1020080083F835207B681B681A687B681B6822F098
:1020180001021A60002318460C37BD465DF8047BA0
:102028007047000080B489B000AF78603960002341
:102038007B6100233B610023BB610023FB616BE1F3
:102048000122FB6902FA03F37B613B681B687A692A
:1020580013403B613A697B699A4240F05A813B6878
:102068005B6803F00303012B05D03B685B6803F052
:102078000303022B30D17B689B68BB61FB695B0063
:10208800032202FA03F3DB43BA691340BB613B68DE
:10209800DA68FB695B0002FA03F3BA691343BB61B0
:1020A8007B68BA699A607B685B68BB610122FB69DF
:1020B80002FA03F3DB43BA691340BB613B685B6810
:1020C8001B0903F00102FB6902FA03F3BA6913431F
:1020D800BB617B68BA695A603B685B6803F00303BD
:1020E800032B17D07B68DB68BB61FB695B000322AD
:1020F80002FA03F3DB43BA691340BB613B689A6891
:10210800FB695B0002FA03F3BA691343BB617B689E
:10211800BA69DA603B685B6803F00303022B23D1DA
:10212800FB69DA087B68083253F82230BB61FB6927
:1021380003F007039B000F2202FA03F3DB43BA699B
:102148001340BB613B681A69FB6903F007039B00F6
:1021580002FA03F3BA691343BB61FB69DA087B68C7
:102168000832B96943F822107B681B68BB61FB69B8
:102178005B00032202FA03F3DB43BA691340BB6135
:102188003B685B6803F00302FB695B0002FA03F338
:10219800BA691343BB617B68BA691A603B685B68BC
:1021A80003F44033002B00F0B4800023FB60604B45
:1021B8005B6C5F4A43F4804353645D4B5B6C03F490
:1021C8008043FB60FB685B4AFB699B08023352F85B
:1021D8002330BB61FB6903F003039B000F2202FA63
:1021E80003F3DB43BA691340BB617B68524A9342ED
:1021F8002BD07B68514A934225D07B68504A934242
:102208001FD07B684F4A934219D07B684E4A93424D
:1022180013D07B684D4A93420DD07B684C4A934259
:1022280007D07B684B4A934201D107230EE008236D
:102238000CE006230AE0052308E0042306E0032354
:1022480004E0022302E0012300E00023FA6902F01F
:10225800030292009340BA691343BB613549FB6995
:102268009B080233BA6941F823203B4B1B68BB61CA
:102278003B69DB43BA691340BB613B685B6803F4A5
:102288008033002B03D0BA693B691343BB61324AE0
:10229800BB691360304B5B68BB613B69DB43BA6960
:1022A8001340BB613B685B6803F40033002B03D029
:1022B800BA693B691343BB61274ABB695360264B24
:1022C8009B68BB613B69DB43BA691340BB613B68F0
:1022D8005B6803F48013002B03D0BA693B6913438E
:1022E800BB611D4ABB6993601B4BDB68BB613B69E3
:1022F800DB43BA691340BB613B685B6803F40013B6
:10230800002B03D0BA693B691343BB61124ABB690E
:10231800D360FB690133FB61FB690F2B7FF690AE3D
:1023280000BF00BF2437BD465DF8047B704700BF7F
:10233800003802400038014000000240000402401A
:1023480000080240000C0240001002400014024045
:1023580000180240001C0240003C014080B483B0D9
:1023680000AF78600B467B8013467B707B78002B30
:1023780003D07A887B689A6103E07B881A047B68BB
:102388009A6100BF0C37BD465DF8047B70470000BA
:1023980080B584B000AF78607B68002B01D1012341
:1023A8002BE17B6893F83D30DBB2002B06D17B68CC
:1023B800002283F83C207868FFF7BAF97B6824226A
:1023C80083F83D207B681B681A687B681B6822F0CD
:1023D80001021A607B681B681A687B681B6842F4F4
:1023E80000421A607B681B681A687B681B6822F4C5
:1023F80000421A6001F006FDF8607B685B68814A5C
:10240800934207D8FB68804A934294BF0123002374
:10241800DBB206E0FB687D4A934294BF01230023A8
:10242800DBB2002B01D00123E7E0FB68784AA2FB6E
:1024380003239B0CBB607B681B685B6823F03F0130
:102448007B681B68BA680A435A607B681B681B6A0A
:1024580023F03F017B685B686A4A934202D8BB68F5
:10246800013309E0BB684FF4967202FB03F3694A33
:10247800A2FB03239B0901337A6812680B4313629A
:102488007B681B68DB6923F44F4222F0FF027B68FC
:102498005B685C498B4219D8FB68591E7B685B688E
:1024A8005B00B1FBF3F3591C40F6FC730B40002BA7
:1024B8000AD0FB68591E7B685B685B00B1FBF3F3CD
:1024C8000133C3F30B0351E004234FE07B689B689F
:1024D800002B11D1FB68581E7B6859680B465B00BE
:1024E8000B44B0FBF3F30133C3F30B03002B0CBF16
:1024F80001230023DBB212E0FB68581E7B68596891
:102508000B469B000B4499000B44B0FBF3F30133DB
:10251800C3F30B03002B0CBF01230023DBB2002BFA
:1025280001D0012322E07B689B68002B0ED1FB6859
:10253800581E7B6859680B465B000B44B0FBF3F3ED
:102548000133C3F30B0343F400430FE0FB68581E49
:102558007B6859680B469B000B4499000B44B0FB01
:10256800F3F30133C3F30B0343F440437968096879
:102578001343CB617B681B681B6823F0C0017B6831
:10258800DA697B681B6A1A437B681B680A431A600E
:102598007B681B689B6823F4034323F0FF037A6876
:1025A80011697A68D26811437A6812680B4393609C
:1025B8007B681B68DB6823F0FF017B685A697B68CE
:1025C8009B691A437B681B680A43DA607B681B684F
:1025D8001A687B681B6842F001021A607B68002257
:1025E8001A647B68202283F83D207B6800221A63E6
:1025F8007B68002283F83E20002318461037BD462A
:1026080080BD00BFA08601007F841E00FF083D003A
:1026180083DE1B43D34D621080B588B002AFF860EB
:10262800084611461A4603467B810B463B811346F2
:10263800FB80FFF723FB7861FB6893F83D30DBB242
:10264800202B40F0D9807B690093192301226D4922
:10265800F86800F0ADFD0346002B01D00223CCE062
:10266800FB6893F83C30012B01D10223C5E0FB68DD
:10267800012283F83C20FB681B681B6803F00103F8
:10268800012B07D0FB681B681A68FB681B6842F0BF
:1026980001021A60FB681B681A68FB681B6822F451
:1026A80000621A60FB68212283F83D20FB68402203
:1026B80083F83E20FB6800221A64FB683A6A5A6273
:1026C800FB68BA8C5A85FB685B8D9AB2FB681A85E1
:1026D800FB684D4ADA62F8883A8979897B690193FF
:1026E800BB6A00930346F86800F0E4FB0346002B3E
:1026F80052D0012381E07A69B96AF86800F02EFEA9
:102708000346002B0DD0FB681B6C042B07D1FB681C
:102718001B681A68FB681B6842F400721A60012380
:102728006BE0FB685B6A1A78FB681B681A61FB68D8
:102738005B6A5A1CFB685A62FB681B8D013B9AB2A4
:10274800FB681A85FB685B8D9BB2013B9AB2FB68FC
:102758005A85FB681B685B6903F00403042B1BD1D3
:10276800FB681B8D002B17D0FB685B6A1A78FB6827
:102778001B681A61FB685B6A5A1CFB685A62FB6833
:102788001B8D013B9AB2FB681A85FB685B8D9BB277
:10279800013B9AB2FB685A85FB681B8D002BAAD1B6
:1027A8007A69B96AF86800F01AFE0346002B0DD062
:1027B800FB681B6C042B07D1FB681B681A68FB6855
:1027C8001B6842F400721A60012316E0FB681B685C
:1027D8001A68FB681B6842F400721A60FB682022C2
:1027E80083F83D20FB68002283F83E20FB68002226
:1027F80083F83C20002300E0022318461837BD4622
:1028080080BD00BF020010000000FFFF80B58CB043
:1028180002AFF860084611461A4603467B810B460C
:102828003B811346FB80FFF729FA7862FB6893F82F
:102838003D30DBB2202B40F008827B6A00931923DD
:1028480001227B49F86800F0B3FC0346002B01D055
:102858000223FBE1FB6893F83C30012B01D10223F2
:10286800F4E1FB68012283F83C20FB681B681B68C5
:1028780003F00103012B07D0FB681B681A68FB688B
:102888001B6842F001021A60FB681B681A68FB6843
:102898001B6822F400621A60FB68222283F83D203C
:1028A800FB68402283F83E20FB6800221A64FB681C
:1028B8003A6B5A62FB68BA8E5A85FB685B8D9AB28E
:1028C800FB681A85FB685B4ADA62F8883A89798975
:1028D8007B6A0193BB6B00930346F86800F080FBAA
:1028E8000346002B01D00123B0E1FB681B8D002BB0
:1028F80013D100233B62FB681B685B693B62FB6882
:102908001B689B693B623B6AFB681B681A68FB682B
:102918001B6842F400721A6084E1FB681B8D012B6E
:102928001BD1FB681B681A68FB681B6822F480626D
:102938001A600023FB61FB681B685B69FB61FB682D
:102948001B689B69FB61FB69FB681B681A68FB686D
:102958001B6842F400721A6064E1FB681B8D022B4D
:102968001BD1FB681B681A68FB681B6822F480622D
:102978001A60FB681B681A68FB681B6842F40062EF
:102988001A600023BB61FB681B685B69BB61FB685D
:102998001B689B69BB61BB6944E100237B61FB68E1
:1029A8001B685B697B61FB681B689B697B617B6952
:1029B80038E1FB681B8D032B00F2F180FB681B8D4F
:1029C800012B23D17A6AB96BF86800F049FD0346F8
:1029D800002B01D0012339E1FB681B681A69FB68E9
:1029E8005B6AD2B21A70FB685B6A5A1CFB685A624F
:1029F800FB681B8D013B9AB2FB681A85FB685B8DEF
:102A08009BB2013B9AB2FB685A850BE1FB681B8DB0
:102A1800022B4ED17B6A0093BB6B00220649F868F3
:102A280000F0C6FB0346002B08D001230EE100BFCF
:102A3800020010000000FFFF04000100FB681B6893
:102A48001A68FB681B6842F400721A60FB681B680E
:102A58001A69FB685B6AD2B21A70FB685B6A5A1C17
:102A6800FB685A62FB681B8D013B9AB2FB681A85AA
:102A7800FB685B8D9BB2013B9AB2FB685A85FB6889
:102A88001B681A69FB685B6AD2B21A70FB685B6ADA
:102A98005A1CFB685A62FB681B8D013B9AB2FB68A3
:102AA8001A85FB685B8D9BB2013B9AB2FB685A851D
:102AB800B8E07B6A0093BB6B00226649F86800F0B7
:102AC80077FB0346002B01D00123BFE0FB681B689E
:102AD8001A68FB681B6822F480621A60FB681B682E
:102AE8001A69FB685B6AD2B21A70FB685B6A5A1C87
:102AF800FB685A62FB681B8D013B9AB2FB681A851A
:102B0800FB685B8D9BB2013B9AB2FB685A857B6A76
:102B18000093BB6B00224F49F86800F049FB03465D
:102B2800002B01D0012391E0FB681B681A68FB6841
:102B38001B6842F400721A60FB681B681A69FB681C
:102B48005B6AD2B21A70FB685B6A5A1CFB685A62ED
:102B5800FB681B8D013B9AB2FB681A85FB685B8D8D
:102B68009BB2013B9AB2FB685A85FB681B681A69DD
:102B7800FB685B6AD2B21A70FB685B6A5A1CFB6816
:102B88005A62FB681B8D013B9AB2FB681A85FB6889
:102B98005B8D9BB2013B9AB2FB685A8542E07A6A28
:102BA800B96BF86800F05CFC0346002B01D00123E8
:102BB8004CE0FB681B681A69FB685B6AD2B21A7042
:102BC800FB685B6A5A1CFB685A62FB681B8D013BF9
:102BD8009AB2FB681A85FB685B8D9BB2013B9AB27F
:102BE800FB685A85FB681B685B6903F00403042BC8
:102BF80018D1FB681B681A69FB685B6AD2B21A7045
:102C0800FB685B6A5A1CFB685A62FB681B8D013BB8
:102C18009AB2FB681A85FB685B8D9BB2013B9AB23E
:102C2800FB685A85FB681B8D002B7FF4C2AEFB68DE
:102C3800202283F83D20FB68002283F83E20FB68B1
:102C4800002283F83C20002300E00223184628379E
:102C5800BD4680BD0400010080B58AB002AFF860AF
:102C68007A603B600B467B81FFF708F8F861012327
:102C7800BB61FB6893F83D30DBB2202B40F011813B
:102C8800FB690093192301228849F86800F090FA3B
:102C98000346002B01D0022304E1FB6893F83C3083
:102CA800012B01D10223FDE0FB68012283F83C20BF
:102CB800FB681B681B6803F00103012B07D0FB6846
:102CC8001B681A68FB681B6842F001021A60FB68FF
:102CD8001B681A68FB681B6822F400621A60FB68AC
:102CE800242283F83D20FB6800221A64FB68704A9E
:102CF800DA62FB681B681A68FB681B6842F480721A
:102D08001A60FB6900933B6800224FF00111F868D4
:102D180000F04EFA0346002B0DD0FB681B681B68B9
:102D280003F48073B3F5807F03D1FB684FF400721E
:102D38001A640323B6E07B89DBB21A46FB681B687A
:102D480002F0FE021A61FEF799FFF861FB681B6842
:102D58005B6903F00203022B0CBF01230023DBB2E3
:102D6800FB75FB681B685B6903F48063B3F5806FD0
:102D78000CBF01230023DBB2BB7525E0FEF77EFF05
:102D88000246FB69D31A3A689A4202D33B68002B81
:102D980003D1FB68A02283F83D20FB681B685B69B0
:102DA80003F00203022B0CBF01230023DBB2FB75E7
:102DB800FB681B685B6903F48063B3F5806F0CBF25
:102DC80001230023DBB2BB75FB6893F83D30DBB20F
:102DD800A02B05D0FB7D002B02D1BB7D002BCDD0D5
:102DE800FB68202283F83D20FB681B685B6903F0C1
:102DF8000203022B29D1FB681B681A68FB681B6851
:102E080042F400721A6000233B61FB681B685B692F
:102E18003B61FB681B689B693B613B69FB690093ED
:102E2800192301222149F86800F0C2F90346002B52
:102E380001D0012336E0FB68202283F83D20FB689F
:102E4800002283F83C2000232CE0FB681B681A68EA
:102E5800FB681B6842F400721A60FB681B686FF419
:102E680080625A61FB690093192301220F49F868AF
:102E780000F09EF90346002B01D0012312E0BB6944
:102E88000133BB61BA697B689A42FFF432AFFB68D1
:102E9800202283F83D20FB68002283F83C20012390
:102EA80000E0022318462037BD4680BD020010000E
:102EB8000000FFFF80B588B002AFF86008461146F1
:102EC8001A4603467B810B463B811346FB80FB6811
:102ED8001B681A68FB681B6842F480721A607B6A78
:102EE80000933B6A00224FF00111F86800F060F986
:102EF8000346002B0DD0FB681B681B6803F4807326
:102F0800B3F5807F03D1FB684FF400721A64032382
:102F18005FE07B89DBB21A46FB681B6802F0FE02A1
:102F28001A617B6A3A6A2D49F86800F098F90346F5
:102F3800002B01D001234CE000237B61FB681B6858
:102F48005B697B61FB681B689B697B617B697A6A4B
:102F5800396AF86800F002FA0346002B0DD0FB68C6
:102F68001B6C042B07D1FB681B681A68FB681B687D
:102F780042F400721A6001232BE0FB88012B05D173
:102F88003B89DAB2FB681B681A6121E03B891B0A9E
:102F98009BB2DAB2FB681B681A617A6A396AF86808
:102FA80000F0DCF90346002B0DD0FB681B6C042BEA
:102FB80007D1FB681B681A68FB681B6842F400723B
:102FC8001A60012305E03B89DAB2FB681B681A61C5
:102FD800002318461837BD4680BD00BF0200010017
:102FE80080B588B002AFF860084611461A46034615
:102FF8007B810B463B811346FB80FB681B681A6884
:10300800FB681B6842F480621A60FB681B681A68D8
:10301800FB681B6842F480721A607B6A00933B6A03
:1030280000224FF00111F86800F0C2F80346002BA7
:103038000DD0FB681B681B6803F48073B3F5807FB1
:1030480003D1FB684FF400721A640323AAE07B895A
:10305800DBB21A46FB681B6802F0FE021A617B6A43
:103068003A6A5249F86800F0FAF80346002B01D092
:10307800012397E000237B61FB681B685B697B6128
:10308800FB681B689B697B617B697A6A396AF868A7
:1030980000F064F90346002B0DD0FB681B6C042B71
:1030A80007D1FB681B681A68FB681B6842F400724A
:1030B8001A60012376E0FB88012B05D13B89DAB23F
:1030C800FB681B681A6121E03B891B0A9BB2DAB2D4
:1030D800FB681B681A617A6A396AF86800F03EF979
:1030E8000346002B0DD0FB681B6C042B07D1FB6833
:1030F8001B681A68FB681B6842F400721A60012397
:1031080050E03B89DAB2FB681B681A617A6A396A4F
:10311800F86800F023F90346002B0DD0FB681B6C00
:10312800042B07D1FB681B681A68FB681B6842F40C
:1031380000721A60012335E0FB681B681A68FB6897
:103148001B6842F480721A607B6A00933B6A002213
:103158004FF00111F86800F02BF80346002B0DD052
:10316800FB681B681B6803F48073B3F5807F03D189
:10317800FB684FF400721A64032313E07B89DBB207
:1031880043F00103DAB2FB681B681A617B6A3A6A8A
:103198000649F86800F063F80346002B01D00123C4
:1031A80000E0002318461837BD4680BD0200010024
:1031B80080B584B000AFF860B9603B601346FB711E
:1031C80025E03B68B3F1FF3F21D0FEF757FD0246EB
:1031D800BB69D31A3A689A4202D33B68002B16D1CE
:1031E800FB6800221A63FB68202283F83D20FB68F5
:1031F800002283F83E20FB681B6C43F02002FB682A
:103208001A64FB68002283F83C20012323E0BB6892
:103218001B0CDBB2012B0DD1FB681B685B69DA4321
:10322800BB6813409BB2002B0CBF01230023DBB209
:103238001A460CE0FB681B689B69DA43BB681340BD
:103248009BB2002B0CBF01230023DBB21A46FB798B
:103258009A42B6D0002318461037BD4680BD80B5C7
:1032680084B000AFF860B9607A603B6051E0FB68F9
:103278001B685B6903F48063B3F5806F23D1FB6837
:103288001B681A68FB681B6842F400721A60FB68C6
:103298001B686FF480625A61FB6800221A63FB683E
:1032A800202283F83D20FB68002283F83E20FB683B
:1032B8001B6C43F00402FB681A64FB68002283F865
:1032C8003C20012346E07B68B3F1FF3F21D0FEF7A5
:1032D800D5FC02463B68D31A7A689A4202D37B68C7
:1032E800002B16D1FB6800221A63FB68202283F8A2
:1032F8003D20FB68002283F83E20FB681B6C43F0EE
:103308002002FB681A64FB68002283F83C20012332
:1033180020E0BB681B0CDBB2012B0CD1FB681B68DF
:103328005B69DA43BB6813409BB2002B14BF0123CF
:103338000023DBB20BE0FB681B689B69DA43BB68C0
:1033480013409BB2002B14BF01230023DBB2002BD8
:103358008DD1002318461037BD4680BD80B584B096
:1033680000AFF860B9607A602DE0F86800F0CEF838
:103378000346002B01D001232DE0BB68B3F1FF3FCA
:1033880021D0FEF77BFC02467B68D31ABA689A42C2
:1033980002D3BB68002B16D1FB6800221A63FB68B6
:1033A800202283F83D20FB68002283F83E20FB683A
:1033B8001B6C43F02002FB681A64FB68002283F848
:1033C8003C20012307E0FB681B685B6903F080036E
:1033D800802BCAD1002318461037BD4680BD80B562
:1033E80084B000AFF860B9607A602DE0F86800F04A
:1033F8008DF80346002B01D001232DE0BB68B3F103
:10340800FF3F21D0FEF73AFC02467B68D31ABA6820
:103418009A4202D3BB68002B16D1FB6800221A63BC
:10342800FB68202283F83D20FB68002283F83E20B9
:10343800FB681B6C43F02002FB681A64FB680022DF
:1034480083F83C20012307E0FB681B685B6903F0F5
:103458000403042BCAD1002318461037BD4680BD8B
:1034680080B584B000AFF860B9607A6042E0FB686C
:103478001B685B6903F01003102B19D1FB681B68EC
:103488006FF010025A61FB6800221A63FB68202261
:1034980083F83D20FB68002283F83E20FB681A6C05
:1034A800FB681A64FB68002283F83C20012329E0AA
:1034B800FEF7E4FB02467B68D31ABA689A4202D345
:1034C800BB68002B16D1FB6800221A63FB68202218
:1034D80083F83D20FB68002283F83E20FB681B6CC4
:1034E80043F02002FB681A64FB68002283F83C2042
:1034F800012307E0FB681B685B6903F04003402B6E
:10350800B5D1002318461037BD4680BD80B483B0BE
:1035180000AF78607B681B685B6903F48063B3F570
:10352800806F1BD17B681B686FF480625A617B686F
:1035380000221A637B68202283F83D207B680022E2
:1035480083F83E207B681B6C43F004027B681A6496
:103558007B68002283F83C20012300E00023184602
:103568000C37BD465DF8047B7047000080B586B017
:1035780000AF78607B68002B01D1012364E27B688F
:103588001B6803F00103002B75D0A34B9B6803F065
:103598000C03042B0CD0A04B9B6803F00C03082BE6
:1035A80012D19D4B5B6803F48003B3F5800F0BD1F8
:1035B800994B1B6803F40033002B5BD07B685B6876
:1035C800002B57D101233FE27B685B68B3F5803F4E
:1035D80006D1914B1B68904A43F4803313601DE079
:1035E8007B685B68B3F5A02F0CD18B4B1B688A4AAC
:1035F80043F480231360884B1B68874A43F4803365
:1036080013600BE0844B1B68834A23F480331360F8
:10361800814B1B68804A23F4802313607B685B68B6
:10362800002B13D0FEF72AFB386108E0FEF726FBD3
:1036380002463B69D31A642B01D9032304E2764B73
:103648001B6803F40033002BF0D014E0FEF716FBE0
:10365800386108E0FEF712FB02463B69D31A642B77
:1036680001D90323F0E16C4B1B6803F40033002BF2
:10367800F0D100E000BF7B681B6803F00203002B59
:1036880063D0654B9B6803F00C03002B0BD0624B97
:103698009B6803F00C03082B1CD15F4B5B6803F499
:1036A8008003002B16D15C4B1B6803F00203002B30
:1036B80005D07B68DB68012B01D00123C4E1564BA0
:1036C8001B6823F0F8027B681B69DB00524913432F
:1036D8000B603AE07B68DB68002B20D04F4B01225F
:1036E8001A60FEF7CBFA386108E0FEF7C7FA02461F
:1036F8003B69D31A022B01D90323A5E1464B1B686A
:1037080003F00203002BF0D0434B1B6823F0F802B0
:103718007B681B69DB00404913430B6015E03F4B96
:1037280000221A60FEF7AAFA386108E0FEF7A6FA46
:1037380002463B69D31A022B01D9032384E1364B95
:103748001B6803F00203002BF0D17B681B6803F0B1
:103758000803002B30D07B685B69002B16D0304BF8
:1037680001221A60FEF78AFA386108E0FEF786FA45
:1037780002463B69D31A022B01D9032364E1264B85
:103788005B6F03F00203002BF0D015E0244B0022FE
:103798001A60FEF773FA386108E0FEF76FFA02461E
:1037A8003B69D31A022B01D903234DE11A4B5B6FF6
:1037B80003F00203002BF0D17B681B6803F00403BD
:1037C800002B00F0A0800023FB75134B1B6C03F04B
:1037D8008053002B0FD10023BB600F4B1B6C0E4A8C
:1037E80043F0805313640C4B1B6C03F08053BB6095
:1037F800BB680123FB750B4B1B6803F48073002B1C
:1038080021D1084B1B68074A43F480731360FEF705
:1038180035FA386111E000BF003802400000474225
:10382800800E474200700040FEF728FA02463B69C6
:10383800D31A022B01D9032306E1854B1B6803F435
:103848008073002BF0D07B689B68012B06D1814BDD
:103858001B6F804A43F0010313671CE07B689B6879
:10386800052B0CD17B4B1B6F7A4A43F0040313677B
:10387800784B1B6F774A43F0010313670BE0754BD6
:103888001B6F744A23F001031367724B1B6F714A55
:1038980023F0040313677B689B68002B15D0FEF7A1
:1038A800EDF938610AE0FEF7E9F902463B69D31AF7
:1038B80041F28832934201D90323C5E0654B1B6F5F
:1038C80003F00203002BEED014E0FEF7D7F93861BD
:1038D8000AE0FEF7D3F902463B69D31A41F288326F
:1038E800934201D90323AFE05A4B1B6F03F0020345
:1038F800002BEED1FB7D012B05D1564B1B6C554A95
:1039080023F0805313647B689B69002B00F09B8035
:10391800504B9B6803F00C03082B5CD07B689B69B9
:10392800022B41D14C4B00221A60FEF7A7F93861EF
:1039380008E0FEF7A3F902463B69D31A022B01D926
:10394800032381E0434B1B6803F00073002BF0D185
:103958007B68DA697B681B6A1A437B685B6A9B0130
:103968001A437B689B6A5B08013B1B041A437B680C
:10397800DB6A1B06374913434B60374B01221A6039
:10398800FEF77CF9386108E0FEF778F902463B69F2
:10399800D31A022B01D9032356E02E4B1B6803F0E0
:1039A8000073002BF0D04EE02B4B00221A60FEF77C
:1039B80065F9386108E0FEF761F902463B69D31AF8
:1039C800022B01D903233FE0224B1B6803F000734D
:1039D800002BF0D137E07B689B69012B01D10123D3
:1039E80032E01C4B5B68FB607B689B69012B28D02D
:1039F800FB6803F480027B68DB699A4221D1FB688B
:103A080003F03F027B681B6A9A421AD1FA6847F6AC
:103A1800C07313407A68526A9201934211D1FB68CD
:103A280003F440327B689B6A5B08013B1B049A42A3
:103A380007D1FB6803F070627B68DB6A1B069A4259
:103A480001D0012300E0002318461837BD4680BD89
:103A580000700040003802406000474280B584B0E2
:103A680000AF786039607B68002B01D10123CCE07E
:103A7800684B1B6803F007033A689A420CD9654BF8
:103A88003A68D2B21A70634B1B6803F007033A68AE
:103A98009A4201D00123B8E07B681B6803F0020357
:103AA800002B20D07B681B6803F00403002B05D093
:103AB800594B9B68584A43F4E05393607B681B68F2
:103AC80003F00803002B05D0534B9B68524A43F47C
:103AD80060439360504B9B6823F0F0027B689B68BF
:103AE8004D4913438B607B681B6803F00103002B6F
:103AF80044D07B685B68012B07D1474B1B6803F4F4
:103B08000033002B19D101237FE07B685B68022B0F
:103B180003D07B685B68032B07D13F4B1B6803F01E
:103B28000073002B09D101236FE03B4B1B6803F0A6
:103B38000203002B01D1012367E0374B9B6823F078
:103B480003027B685B68344913438B60FEF796F881
:103B5800F8600AE0FEF792F80246FB68D31A41F2D1
:103B68008832934201D903234FE02B4B9B6803F023
:103B78000C027B685B689B009A42EBD1254B1B6863
:103B880003F007033A689A420CD2224B3A68D2B241
:103B98001A70204B1B6803F007033A689A4201D059
:103BA800012332E07B681B6803F00403002B08D074
:103BB800194B9B6823F4E0527B68DB681649134372
:103BC8008B607B681B6803F00803002B09D0124B3D
:103BD8009B6823F460427B681B69DB000E49134332
:103BE8008B6000F021F802460B4B9B681B0903F021
:103BF8000F030A49CB5C22FA03F3094A1360094B05
:103C08001B681846FDF7F6FF002318461037BD4617
:103C180080BD00BF003C0240003802402C8A0008EA
:103C280000000020040000202DE9B04384B000AF5C
:103C380000237B600023FB6000233B600023BB6004
:103C4800674B9B6803F00C03082B0DD0082B00F280
:103C5800BD80002B02D0042B03D0B7E0614BBB60C2
:103C6800B7E0614BBB60B4E05D4B5B6803F03F03BA
:103C78007B605B4B5B6803F48003002B4DD0584B93
:103C88005B689B091A464FF0000340F2FF104FF0A3
:103C9800000102EA000803EA0109404649464FF0DC
:103CA80000024FF000034B0143EAD0634201104683
:103CB8001946B0EB080061EB09014FF000024FF024
:103CC80000038B0143EA90638201121A63EB01033C
:103CD8004FF000004FF00001D90041EA5271D000C6
:103CE80002460B4612EB080243EB09034FF00000B3
:103CF8004FF00001590241EAD251500202460B46E8
:103D0800104619467B681A464FF00003FCF758FA2C
:103D180002460B461346FB604AE0314B5B689B0941
:103D28001A464FF0000340F2FF104FF0000102EA7C
:103D3800000403EA0105204629464FF000024FF02F
:103D480000034B0143EAD063420110461946001BA9
:103D580061EB05014FF000024FF000038B0143EACD
:103D680090638201121A63EB01034FF000004FF0D9
:103D78000001D90041EA5271D00002460B461219DF
:103D880045EB03034FF000004FF00001990241EAB0
:103D98009251900202460B46104619467B681A4615
:103DA8004FF00003FCF70CFA02460B461346FB6083
:103DB8000B4B5B681B0C03F0030301335B003B6098
:103DC800FA683B68B2FBF3F3BB6002E0054BBB60EB
:103DD80000BFBB6818461037BD46BDE8B08300BFBA
:103DE800003802400024F40000127A0080B400AFCA
:103DF800034B1B681846BD465DF8047B704700BF3F
:103E08000000002080B500AFFFF7F0FF0246054B29
:103E18009B689B0A03F007030349CB5C22FA03F370
:103E2800184680BD003802403C8A000880B500AFC3
:103E3800FFF7DCFF0246054B9B685B0B03F00703AB
:103E48000349CB5C22FA03F3184680BD00380240D0
:103E58003C8A000880B582B000AF78607B68002B90
:103E680001D101237BE07B685B6A002B08D17B686A
:103E78005B68B3F5827F09D07B680022DA6105E0D0
:103E88007B6800221A617B6800225A617B680022E5
:103E98009A627B6893F85130DBB2002B06D17B68BD
:103EA800002283F850207868FDF78AFC7B6802229C
:103EB80083F851207B681B681A687B681B6822F0AE
:103EC80040021A607B685B6803F482727B689B68B7
:103ED80003F404431A437B68DB6803F400631A4362
:103EE8007B681B6903F002031A437B685B6903F074
:103EF80001031A437B689B6903F400731A437B68C8
:103F0800DB6903F038031A437B681B6A03F08003FC
:103F180042EA03017B689B6A03F400527B681B68D2
:103F28000A431A607B689B691B0C03F004017B68D9
:103F38005B6A03F010027B681B680A435A607B685F
:103F48001B68DA697B681B6822F40062DA617B68A7
:103F580000225A657B68012283F851200023184605
:103F68000837BD4680BD80B584B000AFF860B96041
:103F78007A60FB68002B01D1012334E0FB6893F8D9
:103F88004930DBB2002B06D1FB68002283F84820B9
:103F9800F868FDF71FFDFB681A68FB6808331946C7
:103FA800104601F06DFCFB681868FB689B681A46B0
:103FB800B96801F0B7FCFB685868FB689A68FB6849
:103FC8001B6B796801F0ECFCFB681B68FA68926867
:103FD80053F82210FB681B68FA68926841F00101E7
:103FE80043F82210002318461037BD4680BD80B51F
:103FF80082B000AF78607B68002B01D1012341E0DB
:104008007B6893F83D30DBB2002B06D17B68002239
:1040180083F83C207868FDF71BFC7B68022283F854
:104028003D207B681A687B6804331946104600F007
:1040380095FA7B68012283F846207B68012283F881
:104048003E207B68012283F83F207B68012283F8A9
:1040580040207B68012283F841207B68012283F895
:1040680042207B68012283F843207B68012283F881
:1040780044207B68012283F845207B68012283F86D
:104088003D20002318460837BD4680BD80B485B062
:1040980000AF78607B6893F83D30DBB2012B01D02C
:1040A80001234EE07B68022283F83D207B681B6871
:1040B800DA687B681B6842F00102DA607B681B687B
:1040C800234A934222D07B681B68B3F1804F1DD0EE
:1040D8007B681B681F4A934218D07B681B681E4A7E
:1040E800934213D07B681B681C4A93420ED07B68AE
:1040F8001B681B4A934209D07B681B68194A934284
:1041080004D07B681B68184A934211D17B681B68EE
:104118009B6803F00703FB60FB68062B10D07B68E5
:104128001B681A687B681B6842F001021A6007E086
:104138007B681B681A687B681B6842F001021A607A
:10414800002318461437BD465DF8047B704700BF4E
:10415800000001400004004000080040000C00403E
:1041680000040140004001400018004080B582B0C2
:1041780000AF78607B681B681B6903F00203022BA1
:1041880022D17B681B68DB6803F00203022B1BD17A
:104198007B681B686FF002021A617B6801221A773C
:1041A8007B681B689B6903F00303002B03D07868C6
:1041B80000F0B5F905E0786800F0A7F9786800F034
:1041C800B8F97B6800221A777B681B681B6903F0C3
:1041D8000403042B22D17B681B68DB6803F004030B
:1041E800042B1BD17B681B686FF004021A617B6883
:1041F80002221A777B681B689B6903F44073002BC3
:1042080003D0786800F08BF905E0786800F07DF954
:10421800786800F08EF97B6800221A777B681B6843
:104228001B6903F00803082B22D17B681B68DB6835
:1042380003F00803082B1BD17B681B686FF008028A
:104248001A617B6804221A777B681B68DB6903F0B4
:104258000303002B03D0786800F061F905E0786863
:1042680000F053F9786800F064F97B6800221A7747
:104278007B681B681B6903F01003102B22D17B6835
:104288001B68DB6803F01003102B1BD17B681B68CD
:104298006FF010021A617B6808221A777B681B6826
:1042A800DB6903F44073002B03D0786800F037F91A
:1042B80005E0786800F029F9786800F03AF97B6839
:1042C80000221A777B681B681B6903F00103012B26
:1042D8000ED17B681B68DB6803F00103012B07D153
:1042E8007B681B686FF001021A617868FDF789F92D
:1042F8007B681B681B6903F08003802B0ED17B68E9
:104308001B68DB6803F08003802B07D17B681B6880
:104318006FF080021A61786800F0E0FA7B681B6829
:104328001B6903F04003402B0ED17B681B68DB68D8
:1043380003F04003402B07D17B681B686FF04002F5
:104348001A61786800F0FFF87B681B681B6903F046
:104358002003202B0ED17B681B68DB6803F0200349
:10436800202B07D17B681B686FF020021A617868E0
:1043780000F0AAFA00BF0837BD4680BD80B584B0FA
:1043880000AF786039600023FB737B6893F83C309A
:10439800012B01D10223B4E07B68012283F83C2081
:1043A8007B68022283F83D207B681B689B68BB60A2
:1043B800BB6823F07703BB60BB6823F47F43BB6013
:1043C8007B681B68BA689A603B681B68B3F5005F36
:1043D8003ED0B3F5005F00F28780B3F5805F00F050
:1043E8008680B3F5805F7FD8702B1AD0702B7BD86E
:1043F800602B50D0602B77D8502B3CD0502B73D8E3
:10440800402B58D0402B6FD8302B64D0302B6BD832
:10441800202B60D0202B67D8002B5CD0102B5AD0D3
:1044280062E07B6818683B6899683B685A683B6833
:10443800DB6800F0ADF97B681B689B68BB60BB68F4
:1044480043F07703BB607B681B68BA689A604FE0EB
:104458007B6818683B6899683B685A683B68DB6802
:1044680000F096F97B681B689A687B681B6842F4C1
:1044780080429A603CE07B6818683B6859683B68F2
:10448800DB681A4600F00AF97B681B685021184659
:1044980000F063F92CE07B6818683B6859683B6852
:1044A800DB681A4600F029F97B681B68602118460A
:1044B80000F053F91CE07B6818683B6859683B6852
:1044C800DB681A4600F0EAF87B681B68402118464A
:1044D80000F043F90CE07B681A683B681B681946D2
:1044E800104600F03AF903E00123FB7300E000BF37
:1044F8007B68012283F83D207B68002283F83C20FA
:10450800FB7B18461037BD4680BD80B483B000AF32
:10451800786000BF0C37BD465DF8047B704780B4F7
:1045280083B000AF786000BF0C37BD465DF8047BF0
:10453800704780B483B000AF786000BF0C37BD46C9
:104548005DF8047B704780B483B000AF786000BF2B
:104558000C37BD465DF8047B7047000080B485B019
:1045680000AF786039607B681B68FB607B68404AF5
:10457800934213D07B68B3F1804F0FD07B683D4ADC
:1045880093420BD07B683C4A934207D07B683B4AF6
:10459800934203D07B683A4A934208D1FB6823F0E0
:1045A8007003FB603B685B68FA681343FB607B68D9
:1045B8002F4A93422BD07B68B3F1804F27D07B687A
:1045C8002C4A934223D07B682B4A93421FD07B68A6
:1045D8002A4A93421BD07B68294A934217D07B68AA
:1045E800284A934213D07B68274A93420FD07B68AE
:1045F800264A93420BD07B68254A934207D07B68B2
:10460800244A934203D07B68234A934208D1FB682B
:1046180023F44073FB603B68DB68FA681343FB6074
:10462800FB6823F080023B685B691343FB607B688F
:10463800FA681A603B689A687B68DA623B681A68AD
:104648007B689A627B680A4A934203D07B680C4A6B
:10465800934203D13B681A697B681A637B6801221D
:104668005A6100BF1437BD465DF8047B704700BF30
:10467800000001400004004000080040000C004019
:10468800000401400040014000440140004801404E
:1046980000180040001C00400020004080B487B093
:1046A80000AFF860B9607A60FB681B6A7B61FB68E1
:1046B8001B6A23F00102FB681A62FB689B693B6175
:1046C8003B6923F0F0033B617B681B013A691343A4
:1046D8003B617B6923F00A037B617A69BB681343FA
:1046E8007B61FB683A699A61FB687A691A6200BF64
:1046F8001C37BD465DF8047B704780B487B000AFB7
:10470800F860B9607A60FB681B6A23F01002FB68E6
:104718001A62FB689B697B61FB681B6A3B617B696A
:1047280023F470437B617B681B037A6913437B61C5
:104738003B6923F0A0033B61BB681B013A69134343
:104748003B61FB687A699A61FB683A691A6200BF43
:104758001C37BD465DF8047B704780B485B000AF58
:10476800786039607B689B68FB60FB6823F07003A6
:10477800FB603A68FB68134343F00703FB607B6800
:10478800FA689A6000BF1437BD465DF8047B70472D
:1047980080B487B000AFF860B9607A603B60FB68AE
:1047A8009B687B617B6923F47F437B613B681A02CA
:1047B8007B681A43BB6813437A6913437B61FB68C0
:1047C8007A699A6000BF1C37BD465DF8047B704764
:1047D80080B485B000AF786039607B6893F83C306E
:1047E800012B01D102235AE07B68012283F83C2087
:1047F8007B68022283F83D207B681B685B68FB604E
:104808007B681B689B68BB60FB6823F07003FB60D8
:104818003B681B68FA681343FB607B681B68FA688F
:104828005A607B681B68214A934222D07B681B68C8
:10483800B3F1804F1DD07B681B681D4A934218D086
:104848007B681B681B4A934213D07B681B681A4A13
:1048580093420ED07B681B68184A934209D07B6844
:104868001B68174A934204D07B681B68154A934219
:104878000CD1BB6823F08003BB603B685B68BA68F7
:104888001343BB607B681B68BA689A607B68012227
:1048980083F83D207B68002283F83C2000231846DB
:1048A8001437BD465DF8047B704700BF0000014027
:1048B8000004004000080040000C004000040140D3
:1048C800004001400018004080B483B000AF786019
:1048D80000BF0C37BD465DF8047B704780B483B0D9
:1048E80000AF786000BF0C37BD465DF8047B7047A9
:1048F80080B582B000AF78607B68002B01D10123BE
:104908003FE07B6893F83D30DBB2002B06D17B6833
:10491800002283F83C207868FCF7C0FF7B682422DB
:1049280083F83D207B681B68DA687B681B6822F483
:104938000052DA60786800F0DBFD7B681B681A6952
:104948007B681B6822F490421A617B681B685A696D
:104958007B681B6822F02A025A617B681B68DA6848
:104968007B681B6842F40052DA607B6800221A6494
:104978007B68202283F83D207B68202283F83E2034
:10498800002318460837BD4680BD80B58AB002AFFF
:10499800F860B9603B601346FB8000237B61FB68CD
:1049A80093F83D30DBB2202B7CD1BB68002B02D0C2
:1049B800FB88002B01D1012375E0FB6893F83C309C
:1049C800012B01D102236EE0FB68012283F83C2011
:1049D800FB6800221A64FB68212283F83D20FDF75A
:1049E8004DF97861FB68FA889A84FB68FA88DA845A
:1049F800FB689B68B3F5805F08D1FB681B69002BD7
:104A080004D10023FB61BB68BB6103E0BB68FB61A9
:104A18000023BB61FB68002283F83C202AE03B6846
:104A280000937B6900228021F86800F01FFB034691
:104A3800002B01D0032336E0FB69002B0BD1BB69A7
:104A48001B881A46FB681B68C2F308025A60BB69D8
:104A58000233BB6107E0FB691A78FB681B685A6080
:104A6800FB690133FB61FB68DB8C9BB2013B9AB2AB
:104A7800FB68DA84FB68DB8C9BB2002BCFD13B68E8
:104A880000937B6900224021F86800F0EFFA0346A2
:104A9800002B01D0032306E0FB68202283F83D2089
:104AA800002300E0022318462037BD4680BD80B5AC
:104AB80084B000AFF860B9601346FB80FB6893F8D8
:104AC8003E30DBB2202B1DD1BB68002B02D0FB8807
:104AD800002B01D1012316E0FB6893F83C30012B31
:104AE80001D102230FE0FB68012283F83C20FB6818
:104AF80000221A63FB881A46B968F86800F024FB9C
:104B0800034600E0022318461037BD4680BD00006A
:104B180080B5BAB000AF78607B681B681B68C7F8BF
:104B2800E4307B681B68DB68C7F8E0307B681B688B
:104B38005B69C7F8DC300023C7F8D8300023C7F812
:104B4800D430D7F8E43003F00F03C7F8D830D7F8DB
:104B5800D830002B0FD1D7F8E43003F02003002B16
:104B680009D0D7F8E03003F02003002B03D0786891
:104B780000F003FC56E2D7F8D830002B00F0DE80B6
:104B8800D7F8DC3003F00103002B06D1D7F8E0306A
:104B980003F49073002B00F0D180D7F8E43003F0D1
:104BA8000103002B0BD0D7F8E03003F48073002BFF
:104BB80005D07B681B6C43F001027B681A64D7F848
:104BC800E43003F00403002B0BD0D7F8DC3003F0FB
:104BD8000103002B05D07B681B6C43F002027B6845
:104BE8001A64D7F8E43003F00203002B0BD0D7F88F
:104BF800DC3003F00103002B05D07B681B6C43F00D
:104C080004027B681A64D7F8E43003F00803002B29
:104C180011D0D7F8E03003F02003002B05D1D7F8E6
:104C2800DC3003F00103002B05D07B681B6C43F0DC
:104C380008027B681A647B681B6C002B00F0ED810E
:104C4800D7F8E43003F02003002B08D0D7F8E03081
:104C580003F02003002B02D0786800F08EFB7B68FD
:104C68001B685B6903F04003402B0CBF0123002342
:104C7800DBB2C7F8D4307B681B6C03F00803002B49
:104C880003D1D7F8D430002B4FD0786800F096FACB
:104C98007B681B685B6903F04003402B41D17B684C
:104CA8001B681433C7F89C30D7F89C3053E8003F92
:104CB800C7F89830D7F8983023F04003C7F8D030B9
:104CC8007B681B681433D7F8D020C7F8A820C7F82A
:104CD800A430D7F8A410D7F8A82041E80023C7F8D3
:104CE800A030D7F8A030002BD9D17B689B6B002B64
:104CF80013D07B689B6B7D4A1A657B689B6B184653
:104D0800FDF76DF90346002B16D07B689B6B1B6D76
:104D18007A68926B104698470EE0786800F090F930
:104D28000AE0786800F08CF906E0786800F088F905
:104D38007B6800221A6470E100BF6EE17B681B6B20
:104D4800012B40F04A81D7F8E43003F01003002B20
:104D580000F04381D7F8E03003F01003002B00F097
:104D68003C810023BB607B681B681B68BB607B6859
:104D78001B685B68BB60BB687B681B685B6903F08A
:104D88004003402B40F0B4807B689B6B1B685B68DA
:104D9800A7F8BE30B7F8BE30002B00F040817B6822
:104DA8009B8DB7F8BE209A4280F039817B68B7F8AE
:104DB800BE20DA857B689B6BDB69B3F5807F00F0EA
:104DC80088807B681B680C33C7F88830D7F8883030
:104DD80053E8003FC7F88430D7F8843023F4807351
:104DE800C7F8B8307B681B680C33D7F8B820C7F809
:104DF8009420C7F89030D7F89010D7F8942041E85D
:104E08000023C7F88C30D7F88C30002BD9D17B68B9
:104E18001B6814337B677B6F53E8003F3B673B6F2E
:104E280023F00103C7F8B4307B681B681433D7F844
:104E3800B420C7F88020FB67F96FD7F8802041E8D5
:104E48000023BB67BB6F002BE1D17B681B68143361
:104E58003B663B6E53E8003FFB65FB6D23F0400368
:104E6800C7F8B0307B681B681433D7F8B020FA66EF
:104E7800BB66B96EFA6E41E800237B667B6E002B39
:104E8800E3D17B68202283F83E207B6800221A63E6
:104E98007B681B680C33FB64FB6C53E8003FBB6406
:104EA800BB6C23F01003C7F8AC307B681B680C336D
:104EB800D7F8AC20BA657B65796DBA6D41E80023F7
:104EC8003B653B6D002BE3D17B689B6B1846FDF778
:104ED80016F87B689A8D7B68DB8D9BB2D31A9BB2E0
:104EE8001946786800F0B6F899E000BF8B520008C0
:104EF8007B689A8D7B68DB8D9BB2D31AA7F8CE307E
:104F08007B68DB8D9BB2002B00F08B80B7F8CE302E
:104F1800002B00F086807B681B680C33BB63BB6B7F
:104F280053E8003F7B637B6B23F49073C7F8C8306A
:104F38007B681B680C33D7F8C8207A643B64396CEB
:104F48007A6C41E80023FB63FB6B002BE3D17B68A1
:104F58001B6814337B627B6A53E8003F3B623B6A01
:104F680023F00103C7F8C4307B681B681433D7F8F3
:104F7800C4203A63FB62F96A3A6B41E80023BB62DA
:104F8800BB6A002BE3D17B68202283F83E207B6834
:104F980000221A637B681B680C333B613B6953E84A
:104FA800003FFB60FB6823F01003C7F8C0307B6844
:104FB8001B680C33D7F8C020FA61BB61B969FA697C
:104FC80041E800237B617B69002BE3D1B7F8CE3041
:104FD8001946786800F03EF823E0D7F8E43003F08B
:104FE8008003002B09D0D7F8E03003F08003002BB2
:104FF80003D0786800F059F914E0D7F8E43003F0EA
:105008004003002B0ED0D7F8E03003F04003002B0C
:1050180008D0786800F099F904E000BF02E000BF0A
:1050280000E000BFE837BD4680BD00BF80B483B054
:1050380000AF786000BF0C37BD465DF8047B704751
:1050480080B483B000AF786000BF0C37BD465DF810
:10505800047B704780B483B000AF78600B467B80D8
:1050680000BF0C37BD465DF8047B704780B590B033
:1050780000AFF860B9603B601346FB7150E0BB6C51
:10508800B3F1FF3F4CD0BB6C002B07D0FCF7F6FD0B
:1050980002463B68D31ABA6C9A4241D2FB681B6835
:1050A8000C33BB62BB6A53E8003F7B627B6A23F424
:1050B800D073FB63FB681B680C33FA6B7A633B6342
:1050C800396B7A6B41E80023FB62FB6A002BE5D160
:1050D800FB681B6814337B617B6953E8003F3B61C5
:1050E8003B6923F00103BB63FB681B681433BA6B8D
:1050F8003A62FB61F9693A6A41E80023BB61BB691E
:10510800002BE5D1FB68202283F83D20FB68202294
:1051180083F83E20FB68002283F83C2003230FE03D
:10512800FB681B681A68BB681340BA689A420CBFD0
:1051380001230023DBB21A46FB799A429FD0002351
:1051480018464037BD4680BD80B485B000AFF860D2
:10515800B9601346FB80FB68BA689A62FB68FA88F4
:105168009A85FB68FA88DA85FB6800221A64FB686E
:10517800222283F83E20FB68002283F83C20FB684B
:105188001B68DA68FB681B6842F48072DA60FB68A7
:105198001B685A69FB681B6842F001025A61FB6888
:1051A8001B68DA68FB681B6842F02002DA6000239B
:1051B80018461437BD465DF8047B704780B495B037
:1051C80000AF78607B681B680C337B637B6B53E8AC
:1051D800003F3B633B6B23F49073FB647B681B6865
:1051E8000C33FA6C3A64FB63F96B3A6C41E80023C0
:1051F800BB63BB6B002BE5D17B681B6814333B6238
:105208003B6A53E8003FFB61FB6923F00103BB6481
:105218007B681B681433BA6CFA62BB62B96AFA6AB3
:1052280041E800237B627B6A002BE5D17B681B6B1E
:10523800012B19D17B681B680C33FB60FB6853E8B2
:10524800003FBB60BB6823F010037B647B681B686E
:105258000C337A6CBA617B617969BA6941E80023D9
:105268003B613B69002BE5D17B68202283F83E2017
:105278007B6800221A6300BF5437BD465DF8047B83
:10528800704780B584B000AF78607B689B6BFB602B
:10529800FB680022DA85FB680022DA84F868FFF7E9
:1052A800CFFE00BF1037BD4680BD80B485B000AFCB
:1052B80078607B6893F83D30DBB2212B3ED17B6868
:1052C8009B68B3F5805F14D17B681B69002B10D1F4
:1052D8007B681B6AFB60FB681B881A467B681B6837
:1052E800C2F308025A607B681B6A9A1C7B681A62C0
:1052F80008E07B681B6A591C7A6811621A787B6817
:105308001B685A607B68DB8C9BB2013B9BB27A6856
:105318001946D184002B0FD17B681B68DA687B683B
:105328001B6822F08002DA607B681B68DA687B6899
:105338001B6842F04002DA60002300E002231846AE
:105348001437BD465DF8047B704780B582B000AF66
:1053580078607B681B68DA687B681B6822F040020B
:10536800DA607B68202283F83D207868FFF75EFECC
:10537800002318460837BD4680BD80B58CB000AF05
:1053880078607B6893F83E30DBB2222B40F0AB802C
:105398007B689B68B3F5805F17D17B681B69002B1E
:1053A80013D10023FB627B689B6ABB627B681B6826
:1053B8005B689BB2C3F308039AB2BB6A1A807B6826
:1053C8009B6A9A1C7B689A6226E07B689B6AFB62F0
:1053D8000023BB627B689B68B3F5805F07D07B685E
:1053E8009B68002B0AD17B681B69002B06D17B6860
:1053F8001B685B68DAB2FB6A1A7008E07B681B6896
:105408005B68DBB203F07F03DAB2FB6A1A707B6871
:105418009B6A5A1C7B689A627B68DB8D9BB2013B56
:105428009BB27A681946D185002B5AD17B681B68D4
:10543800DA687B681B6822F02002DA607B681B68E8
:10544800DA687B681B6822F48072DA607B681B6804
:105458005A697B681B6822F001025A617B68202226
:1054680083F83E207B681B6B012B35D17B680022BB
:105478001A637B681B680C337B617B6953E8003FC8
:105488003B613B6923F010037B627B681B680C332C
:105498007A6A3A62FB61F9693A6A41E80023BB61BA
:1054A800BB69002BE5D17B681B681B6803F0100300
:1054B800102B0AD10023FB607B681B681B68FB600C
:1054C8007B681B685B68FB60FB687B689B8D194683
:1054D8007868FFF7BFFD02E07868FCF7E3FA00237D
:1054E80002E0002300E0022318463037BD4680BDA5
:1054F8002DE9F04F9FB000AFF866FB6E1B681B6983
:1055080023F44050FB6ED968FB6E1A6840EA010329
:105518001361FB6E9A68FB6E1B691A43FB6E5B692D
:105528001A43FB6EDB6913433B67FB6E1B68DB6842
:1055380023F4164121F00C01FB6E1A683B6F0B43F4
:10554800D360FB6E1B685B6923F44070FB6E99693E
:10555800FB6E1A6840EA01035361FB6E1A68C54B7B
:105568009A4204D0FB6E1A68C34B9A4203D1FEF7E5
:105578005DFC786702E0FEF745FC7867FB6EDB6947
:10558800B3F5004F40F0B6807B6F1C464FF0000526
:1055980022462B46911839645B417B64D7E9102376
:1055A800121945EB03034FF000004FF00001D9003A
:1055B80041EA5271D00002460B46111939666B4117
:1055C8007B66FB6E5B681A464FF000039118B9635F
:1055D8005B41FB63D7E90E23D7E91801FAF7F0FD21
:1055E80002460B46A54BA3FB02235B091E017B6FFA
:1055F8001C464FF0000522462B46911839635B4143
:105608007B63D7E90C23121945EB03034FF0000025
:105618004FF00001D90041EA5271D00002460B4612
:105628001119B9656B41FB65FB6E5B681A464FF053
:1056380000039118B9625B41FB62D7E90A23D7E9F5
:105648001601FAF7BDFD02460B468C4BA3FB02136D
:105658005B09642101FB03F3D31ADB003233874A69
:10566800A2FB03235B095B0003F4F8731E447B6F02
:1056780018464FF0000102460B4694183C625B4105
:105688007B62D7E90823121841EB03034FF00004AB
:105698004FF00005DD0045EA5275D40022462B463E
:1056A80014183C654B417B65FB6E5B681A464FF0EE
:1056B80000039118B9615B41FB61D7E90623D7E97B
:1056C8001401FAF77DFD02460B466C4BA3FB02134F
:1056D8005B09642101FB03F3D31ADB003233674A09
:1056E800A2FB03235B0903F00702FB6E1B6832442D
:1056F8009A60B9E07B6F1C464FF0000522462B46A6
:10570800911839615B417B61D7E90423121945EB94
:1057180003034FF000004FF00001D90041EA527135
:10572800D00002460B4612EB040843EB0509FB6E5A
:105738005B6818464FF000014FF000024FF000037D
:105748008B0043EA9073820040464946FAF738FDD9
:1057580002460B46494BA3FB02235B091E017B6FE4
:1057680018464FF0000102460B469418BC605B4196
:10577800FB60D7E90223121841EB03034FF0000442
:105788004FF00005DD0045EA5275D40022462B464D
:105798001418BC644B41FB64FB6E5B6818464FF001
:1057A80000014FF000024FF000038B0043EA9073B2
:1057B8008200D7E91201FAF703FD02460B462F4B88
:1057C800A3FB02135B09642101FB03F3D31A1B013A
:1057D80032332A4AA2FB03235B0903F0F0031E4479
:1057E8007B6F18464FF0000102460B4694183C6048
:1057F8005B417B60D7E90023121841EB03034FF0AC
:1058080000044FF00005DD0045EA5275D400224639
:105818002B4612EB000A43EB010BFB6E5B68184644
:105828004FF000014FF000024FF000038B0043EAF5
:105838009073820050465946FAF7C2FC02460B465E
:105848000E4BA3FB02135B09642101FB03F3D31A7C
:105858001B013233094AA2FB03235B0903F00F0241
:10586800FB6E1B6832449A6000BF7C37BD46BDE8BA
:10587800F08F00BF00100140001401401F85EB515C
:1058880080B485B000AF786039600023FB603B6866
:105898001A687B6853F82230FB60FA68204B134083
:1058A800FB603B685A683B689B681A433B68DB6847
:1058B8001A433B681B691A433B685B691A433B6898
:1058C8009B691A433B68DB691A433B681B6A1A43A6
:1058D8003B685B6A1A433B689B6A1A433B68DB6A0E
:1058E8001A433B68DB6B1A433B681B6B1343FA682C
:1058F8001343FB603B689B68082B03D1FB6843F0AC
:105908004003FB603B681A687B68F96843F822101B
:10591800002318461437BD465DF8047B704700BF66
:105928008000F0FF80B487B000AFF860B9607A609B
:1059380000237B617B685A1CFB6853F822307B612B
:105948007B6903F040437B61BB681A68BB685B688E
:105958001B011A43BB689B681B021A43BB68DB68C0
:105968001B041A43BB681B69013B1B051A43BB6830
:105978005B69023B1B061A43BB689B6913437A6940
:1059880013437B617B685A1CFB68796943F82210D2
:10599800002318461C37BD465DF8047B704700009D
:1059A80080B487B000AFF860B9607A603B600023CC
:1059B8007B613B68B3F5804F22D1FB687A6853F866
:1059C80022307B617A69154B13407B61BB681A688A
:1059D800BB685B681B011A43BB689B681B021A43C0
:1059E800BB68DB681B041A43BB689B6913437A696D
:1059F80013437B61FB687A68796943F8221005E0F4
:105A0800FB687A686FF0704143F82210002318464B
:105A18001C37BD465DF8047B704700BF0000F0CF1F
:105A280070B50D4D0D4C641BA4100026A64209D17B
:105A38000B4D0C4C00F020F8641BA4100026A64265
:105A480005D170BD55F8043B98470136EEE755F887
:105A5800043B98470136F2E74C8A00084C8A000854
:105A68004C8A0008508A000802440346934200D139
:105A7800704703F8011BF9E7F8B500BFF8BC08BC8C
:105A88009E467047F8B500BFF8BC08BC9E467047F4
:105A980052656365697665643A2000003A00000043
:105AA8000A000000000000000000000000000000E4
:105AB80000000000000000080808080808080000A6
:105AC8001818000000486C241200000000000000B4
